:0600000080317A2B0000A4
:08000800830180312000200873
:10001000A4002108A5002208A6002308A700850146
:1000200091308400001C162811187C28850191301D
:100030008400801D1D2891192A288B1D21280B184A
:1000400088282408A0002508A1002608A200270867
:10005000A30009002400941A35282000C0012400C0
:10006000141D35282000C017240020004008C00AB5
:10007000D40054084F3C031C5E28240015132000B4
:10008000911D40282400110815162000D300D40823
:10009000031D4C285308AB00540B52285308AC00E6
:1000A0005308AA005408023C031D58285308AB000B
:1000B0005408033C031D5E285308AB005408803CE1
:1000C000031D79282A08D5002400110820005508AE
:1000D00024009100151620009111240014186E2898
:1000E0002000A1012400151E78282000A10A240068
:1000F000200091118031212821000C1222000C12C5
:1001000021000C1022000C14200011108031212835
:100110002700931221008C1620008C1A9D282100A4
:100120000C1222000C1621000C1022000C102000D2
:1001300096013B0897003A0896000B108031212861
:10014000203085002130840000080319B8280A30C7
:10015000A100BF30A0006400A00BAB28A10BA92810
:100160005E30A000A00BB228B5286400800BA72841
:1001700008008E30A0004208A1004108A200A3019F
:10018000A108031DCD282208A100A2010830A00269
:10019000A108031DCD28A001D5280310A11BD42838
:1001A000A20DA10DA003CD28A1138031DC2B4108A5
:1001B00003194729C900450803194729C907031826
:1001C000E8287F30C902031C472903194729EC2876
:1001D0008130C907031847294908A000A101A201DD
:1001E000A3014208CD00CD174308CC004408CB0042
:1001F0001830C900CA014B1C15294808A307031C65
:100200000729A20A031D0729A10A0319CA174708CB
:10021000A207031C0E29A10A0319CA174608C30026
:10022000C3174308A1070318CA17CA0DA10CA20CD3
:10023000A30CCD0CCC0CCB0C0310C90BFA2801304D
:10024000A00703184729A11B2C29CD0DA30DA20D32
:10025000A10DA00303194729CD1F3D29A30A031DA2
:100260003D29A20A031D3D29A10A031D3D29A10C18
:10027000A20CA30CA00A031947294208CA00460889
:10028000CA06CA1F4529A1174B29A1134B29A00152
:10029000A101A201A301080045080319112AD100F8
:1002A00049080319112AD102031C5B297F30D107A9
:1002B0000318112A61298130D102031C112A031964
:1002C000112A5108A000A101A201A301D0014608F2
:1002D000CF00CF174708CE004808CD001930D10015
:1002E0004C08CD02031884290130CE02031884295A
:1002F000CF0203188429D00203188429D00ACF0A18
:10030000CE0A4C08CD07B6294B08CE0203189F2908
:100310000130CF0203189F29D00203189F29D00A69
:10032000CF0A4B08CE074C08CD07031CB629CE0ACE
:10033000031DB629CF0A031DB629D00AB6294A08DB
:100340008038CF020318B5290130D0020318B5292F
:10035000D00A4A088038CF074B08CE07031C9329E0
:10036000CF0A031D9329D00A93292314D10BB9294D
:10037000C4290310CD0DCE0DCF0DD00D0310A30D4C
:10038000A20DA10DD20D7029521CCC290310A10C75
:10039000A20CA30CD20CCF29A0030319112AD21B43
:1003A000F8290310CD0DCE0DCF0DD00D4C08CD0288
:1003B0000318E4290130CE020318E429CF02031800
:1003C000E429D002031C072A4B08CE020318EF29A8
:1003D0000130CF020318EF29D002031C072A4A0874
:1003E0008038CF020318F8290130D002031C072AF5
:1003F000A30A031D072AA20A031D072AA10A031D37
:10040000072AA00A0319112AA10CA20CA30C460862
:10041000D1004A08D106D11F0F2AA117152AA1130E
:10042000152AA001A101A201A3018031042C803072
:100430008318C606CB01CC014208CA004608CA068A
:10044000410803190A2BC900A00045080319132B02
:10045000C9020319AE2A031C6B2A4608CF00CF1726
:100460004708CE004808CD00CC010310CF0CCE0CBD
:10047000CD0CCC0CC90B342ACA1F412A4B14272B94
:100480004B1049104B1620308500243084003C2B43
:100490004B12CA1B552A491C602ACF0CCE0CCD0C1E
:1004A000CC0CA00A0319222B602ACF1B632A03104D
:1004B000CC0DCD0DCE0DCF0DA0030319222B552A47
:1004C0004B17CF2A4B134208CA00CA1F692ACF17FD
:1004D0001B2BCF131B2B4508C900A0004108C902E4
:1004E0004208CF00CF174308CE004408CD00CC010E
:1004F0000310CF0CCE0CCD0CCC0CC90B772ACA1F25
:10050000842ACB14272BCB104910CB162030850022
:10051000283084003C2BCB12CA1B982A491CA32AE2
:10052000CF0CCE0CCD0CCC0CA00A0319222BA32A85
:10053000CF1BA62A0310CC0DCD0DCE0DCF0DA003E1
:100540000319222B982ACB17CF2ACB134608CA00AF
:10055000CA1FAC2ACF171B2BCF131B2B4608CF006B
:10056000CF174708CE004808CD00CA1FBB2ACF13BB
:100570004B15272B4B11CC0149102030850024301E
:1005800084003C2BCA1BE52A4208CA00491CCF2A1A
:10059000CF0CCE0CCD0CCC0CA00A0319222BCC1FF7
:1005A000E02ACD0A031DE02ACE0A031DE02ACF0A65
:1005B000031DE02ACF0CCE0CCD0CA00A0319222B70
:1005C0004B1B622ACB1BA52A042B8030CF06CF1FE2
:1005D000ED2A272B4608CA00FA2A4208CA00CF088B
:1005E000031DFA2ACE08031DFA2ACD08031DFA2A94
:1005F000A0011B2BCF1B042B0310CC0DCD0DCE0D5A
:10060000CF0DA00BFA2A222BCA1F082BCF171B2BAA
:10061000CF131B2B4508A0004608CF004708CE008B
:100620004808CD001B2B4108A0004208CF0043081A
:10063000CE004408CD004F08A1004E08A2004D088E
:10064000A300582BA001A101A201A301582BCC01AA
:10065000CD09CE09CF09CC09CC0A031D352BCD0A13
:10066000031D352BCE0A0319CF0A4B18402ACB188D
:10067000832A4B19BA2AEA2A0008CD07031C462B05
:10068000CE0A031D462BCF0A031949141100CE07C9
:10069000031C4D2BCF0A031949141100801F803A07
:1006A000CF07031849144B1A482ACB1A8B2AC22A9F
:1006B00080312A2C8E30A0004108A0024208A200FE
:1006C0004308A100A217A0080319712B0310A20868
:1006D000031D6D2BA1080319712BA20CA10CA00BFB
:1006E000662BC21F782BA109A209A10A0319A20A2D
:1006F0008031332CF030210099008C140C1524002B
:10070000171097109711223092003630950016146A
:100710002000AA01BB01BA01BF01BE01BD018030AA
:10072000BC000330C00023008C0122009201910123
:1007300004302000AB0021000C1022000C1421001A
:100740000C1222000C1664302000C100A0202100F1
:100750000C1222000C1264302000C100A0202100E5
:100760000C1222000C1664302000C100A0202100D1
:100770000C1222000C1264302000C100A0202200C4
:100780009D113530200098009901210011141E1090
:100790009E10003023008C008B15270092169112BA
:1007A00021009115C0308B0464302000C100A020CE
:1007B000C2012A08C100B928CD30C400CC30C30022
:1007C0000430C2008230C1002308C8002208C700DC
:1007D0002108C6002008C500D7202308C40022082D
:1007E000C3002108C2002008C1002308C800220855
:1007F000C7002108C6002008C500CC01CB01483045
:10080000CA008530C9004C292308BF002208BE0059
:100810002108BD002008BC00C401C3017A30C20019
:100820008830C1003F08C8003E08C7003D08C60028
:100830003C08C500D7208314C401C301C2018F3016
:10084000C1002308C8002208C7002108C6002008EC
:10085000C500172A2308C4002208C3002108C200CB
:100860002008C1005A2B2208BB002108BA00210031
:04087000D42B630022
:020000040001F9
:04000E00C43FFF1ECE
:00000001FF
;PIC12F1822
;CRC=928A  CREATED="14-oct-16 23:45"
